{
  "contractName": "StarNotary",
  "abi": [
    {
      "constant": true,
      "inputs": [
        {
          "name": "interfaceId",
          "type": "bytes4"
        }
      ],
      "name": "supportsInterface",
      "outputs": [
        {
          "name": "",
          "type": "bool"
        }
      ],
      "payable": false,
      "stateMutability": "view",
      "type": "function"
    },
    {
      "constant": true,
      "inputs": [
        {
          "name": "tokenId",
          "type": "uint256"
        }
      ],
      "name": "getApproved",
      "outputs": [
        {
          "name": "",
          "type": "address"
        }
      ],
      "payable": false,
      "stateMutability": "view",
      "type": "function"
    },
    {
      "constant": false,
      "inputs": [
        {
          "name": "to",
          "type": "address"
        },
        {
          "name": "tokenId",
          "type": "uint256"
        }
      ],
      "name": "approve",
      "outputs": [],
      "payable": false,
      "stateMutability": "nonpayable",
      "type": "function"
    },
    {
      "constant": true,
      "inputs": [
        {
          "name": "",
          "type": "uint256"
        }
      ],
      "name": "tokenIdToStarInfo",
      "outputs": [
        {
          "name": "name",
          "type": "string"
        },
        {
          "name": "story",
          "type": "string"
        },
        {
          "name": "Dec",
          "type": "string"
        },
        {
          "name": "Mag",
          "type": "string"
        },
        {
          "name": "Cent",
          "type": "string"
        }
      ],
      "payable": false,
      "stateMutability": "view",
      "type": "function"
    },
    {
      "constant": false,
      "inputs": [
        {
          "name": "from",
          "type": "address"
        },
        {
          "name": "to",
          "type": "address"
        },
        {
          "name": "tokenId",
          "type": "uint256"
        }
      ],
      "name": "transferFrom",
      "outputs": [],
      "payable": false,
      "stateMutability": "nonpayable",
      "type": "function"
    },
    {
      "constant": true,
      "inputs": [
        {
          "name": "tokenId",
          "type": "uint256"
        }
      ],
      "name": "ownerOf",
      "outputs": [
        {
          "name": "",
          "type": "address"
        }
      ],
      "payable": false,
      "stateMutability": "view",
      "type": "function"
    },
    {
      "constant": true,
      "inputs": [
        {
          "name": "owner",
          "type": "address"
        }
      ],
      "name": "balanceOf",
      "outputs": [
        {
          "name": "",
          "type": "uint256"
        }
      ],
      "payable": false,
      "stateMutability": "view",
      "type": "function"
    },
    {
      "constant": true,
      "inputs": [
        {
          "name": "",
          "type": "bytes32"
        }
      ],
      "name": "registeredStars",
      "outputs": [
        {
          "name": "",
          "type": "bool"
        }
      ],
      "payable": false,
      "stateMutability": "view",
      "type": "function"
    },
    {
      "constant": false,
      "inputs": [
        {
          "name": "to",
          "type": "address"
        },
        {
          "name": "approved",
          "type": "bool"
        }
      ],
      "name": "setApprovalForAll",
      "outputs": [],
      "payable": false,
      "stateMutability": "nonpayable",
      "type": "function"
    },
    {
      "constant": true,
      "inputs": [
        {
          "name": "owner",
          "type": "address"
        },
        {
          "name": "operator",
          "type": "address"
        }
      ],
      "name": "isApprovedForAll",
      "outputs": [
        {
          "name": "",
          "type": "bool"
        }
      ],
      "payable": false,
      "stateMutability": "view",
      "type": "function"
    },
    {
      "anonymous": false,
      "inputs": [
        {
          "indexed": true,
          "name": "from",
          "type": "address"
        },
        {
          "indexed": true,
          "name": "to",
          "type": "address"
        },
        {
          "indexed": true,
          "name": "tokenId",
          "type": "uint256"
        }
      ],
      "name": "Transfer",
      "type": "event"
    },
    {
      "anonymous": false,
      "inputs": [
        {
          "indexed": true,
          "name": "owner",
          "type": "address"
        },
        {
          "indexed": true,
          "name": "approved",
          "type": "address"
        },
        {
          "indexed": true,
          "name": "tokenId",
          "type": "uint256"
        }
      ],
      "name": "Approval",
      "type": "event"
    },
    {
      "anonymous": false,
      "inputs": [
        {
          "indexed": true,
          "name": "owner",
          "type": "address"
        },
        {
          "indexed": true,
          "name": "operator",
          "type": "address"
        },
        {
          "indexed": false,
          "name": "approved",
          "type": "bool"
        }
      ],
      "name": "ApprovalForAll",
      "type": "event"
    },
    {
      "constant": false,
      "inputs": [
        {
          "name": "_name",
          "type": "string"
        },
        {
          "name": "_story",
          "type": "string"
        },
        {
          "name": "_Dec",
          "type": "string"
        },
        {
          "name": "_Mag",
          "type": "string"
        },
        {
          "name": "_Cent",
          "type": "string"
        },
        {
          "name": "_tokenId",
          "type": "uint256"
        }
      ],
      "name": "createStar",
      "outputs": [],
      "payable": false,
      "stateMutability": "nonpayable",
      "type": "function"
    },
    {
      "constant": true,
      "inputs": [
        {
          "name": "_Dec",
          "type": "string"
        },
        {
          "name": "_Mag",
          "type": "string"
        },
        {
          "name": "_Cent",
          "type": "string"
        }
      ],
      "name": "checkIfStarExist",
      "outputs": [
        {
          "name": "",
          "type": "bool"
        }
      ],
      "payable": false,
      "stateMutability": "view",
      "type": "function"
    },
    {
      "constant": false,
      "inputs": [
        {
          "name": "_tokenId",
          "type": "uint256"
        },
        {
          "name": "_price",
          "type": "uint256"
        }
      ],
      "name": "putStarUpForSale",
      "outputs": [],
      "payable": false,
      "stateMutability": "nonpayable",
      "type": "function"
    },
    {
      "constant": true,
      "inputs": [
        {
          "name": "_tokenId",
          "type": "uint256"
        }
      ],
      "name": "starsForSale",
      "outputs": [
        {
          "name": "",
          "type": "uint256"
        }
      ],
      "payable": false,
      "stateMutability": "view",
      "type": "function"
    },
    {
      "constant": false,
      "inputs": [
        {
          "name": "_tokenId",
          "type": "uint256"
        }
      ],
      "name": "buyStar",
      "outputs": [],
      "payable": true,
      "stateMutability": "payable",
      "type": "function"
    },
    {
      "constant": false,
      "inputs": [
        {
          "name": "_from",
          "type": "address"
        },
        {
          "name": "_to",
          "type": "address"
        },
        {
          "name": "_tokenId",
          "type": "uint256"
        }
      ],
      "name": "safeTransferFrom",
      "outputs": [],
      "payable": false,
      "stateMutability": "nonpayable",
      "type": "function"
    },
    {
      "constant": false,
      "inputs": [
        {
          "name": "from",
          "type": "address"
        },
        {
          "name": "to",
          "type": "address"
        },
        {
          "name": "tokenId",
          "type": "uint256"
        },
        {
          "name": "_data",
          "type": "bytes"
        }
      ],
      "name": "safeTransferFrom",
      "outputs": [],
      "payable": false,
      "stateMutability": "nonpayable",
      "type": "function"
    }
  ],
  "bytecode": "0x6080604052620000416301ffc9a77c01000000000000000000000000000000000000000000000000000000000262000084640100000000026401000000009004565b6200007e6380ac58cd7c01000000000000000000000000000000000000000000000000000000000262000084640100000000026401000000009004565b62000142565b63ffffffff7c010000000000000000000000000000000000000000000000000000000002817bffffffffffffffffffffffffffffffffffffffffffffffffffffffff191614151515620000d657600080fd5b6001600080837bffffffffffffffffffffffffffffffffffffffffffffffffffffffff19167bffffffffffffffffffffffffffffffffffffffffffffffffffffffff1916815260200190815260200160002060006101000a81548160ff02191690831515021790555050565b61255980620001526000396000f3006080604052600436106100f1576000357c0100000000000000000000000000000000000000000000000000000000900463ffffffff16806301ffc9a7146100f65780630384153d1461015a5780630564b13014610267578063081812fc146102a8578063095ea7b3146103155780631967fd981461036257806323b872dd146105b85780632f1c34ef14610625578063316a43611461064557806342842e0e1461067c5780636352211e146106e957806370a082311461075657806384c4649f146107ad578063a22cb465146107f6578063b250ced014610845578063b88d4fde146109d0578063e985e9c514610a83575b600080fd5b34801561010257600080fd5b5061014060048036038101908080357bffffffffffffffffffffffffffffffffffffffffffffffffffffffff19169060200190929190505050610afe565b604051808215151515815260200191505060405180910390f35b34801561016657600080fd5b5061024d600480360381019080803590602001908201803590602001908080601f0160208091040260200160405190810160405280939291908181526020018383808284378201915050505050509192919290803590602001908201803590602001908080601f0160208091040260200160405190810160405280939291908181526020018383808284378201915050505050509192919290803590602001908201803590602001908080601f0160208091040260200160405190810160405280939291908181526020018383808284378201915050505050509192919290505050610b65565b604051808215151515815260200191505060405180910390f35b34801561027357600080fd5b5061029260048036038101908080359060200190929190505050610ba8565b6040518082815260200191505060405180910390f35b3480156102b457600080fd5b506102d360048036038101908080359060200190929190505050610bc5565b604051808273ffffffffffffffffffffffffffffffffffffffff1673ffffffffffffffffffffffffffffffffffffffff16815260200191505060405180910390f35b34801561032157600080fd5b50610360600480360381019080803573ffffffffffffffffffffffffffffffffffffffff16906020019092919080359060200190929190505050610c16565b005b34801561036e57600080fd5b5061038d60048036038101908080359060200190929190505050610d5b565b60405180806020018060200180602001806020018060200186810386528b818151815260200191508051906020019080838360005b838110156103dd5780820151818401526020810190506103c2565b50505050905090810190601f16801561040a5780820380516001836020036101000a031916815260200191505b5086810385528a818151815260200191508051906020019080838360005b83811015610443578082015181840152602081019050610428565b50505050905090810190601f1680156104705780820380516001836020036101000a031916815260200191505b50868103845289818151815260200191508051906020019080838360005b838110156104a957808201518184015260208101905061048e565b50505050905090810190601f1680156104d65780820380516001836020036101000a031916815260200191505b50868103835288818151815260200191508051906020019080838360005b8381101561050f5780820151818401526020810190506104f4565b50505050905090810190601f16801561053c5780820380516001836020036101000a031916815260200191505b50868103825287818151815260200191508051906020019080838360005b8381101561057557808201518184015260208101905061055a565b50505050905090810190601f1680156105a25780820380516001836020036101000a031916815260200191505b509a505050505050505050505060405180910390f35b3480156105c457600080fd5b50610623600480360381019080803573ffffffffffffffffffffffffffffffffffffffff169060200190929190803573ffffffffffffffffffffffffffffffffffffffff16906020019092919080359060200190929190505050611089565b005b61064360048036038101908080359060200190929190505050611158565b005b34801561065157600080fd5b5061067a600480360381019080803590602001909291908035906020019092919050505061133f565b005b34801561068857600080fd5b506106e7600480360381019080803573ffffffffffffffffffffffffffffffffffffffff169060200190929190803573ffffffffffffffffffffffffffffffffffffffff1690602001909291908035906020019092919050505061139d565b005b3480156106f557600080fd5b5061071460048036038101908080359060200190929190505050611430565b604051808273ffffffffffffffffffffffffffffffffffffffff1673ffffffffffffffffffffffffffffffffffffffff16815260200191505060405180910390f35b34801561076257600080fd5b50610797600480360381019080803573ffffffffffffffffffffffffffffffffffffffff1690602001909291905050506114ae565b6040518082815260200191505060405180910390f35b3480156107b957600080fd5b506107dc6004803603810190808035600019169060200190929190505050611532565b604051808215151515815260200191505060405180910390f35b34801561080257600080fd5b50610843600480360381019080803573ffffffffffffffffffffffffffffffffffffffff169060200190929190803515159060200190929190505050611552565b005b34801561085157600080fd5b506109ce600480360381019080803590602001908201803590602001908080601f0160208091040260200160405190810160405280939291908181526020018383808284378201915050505050509192919290803590602001908201803590602001908080601f0160208091040260200160405190810160405280939291908181526020018383808284378201915050505050509192919290803590602001908201803590602001908080601f0160208091040260200160405190810160405280939291908181526020018383808284378201915050505050509192919290803590602001908201803590602001908080601f0160208091040260200160405190810160405280939291908181526020018383808284378201915050505050509192919290803590602001908201803590602001908080601f01602080910402602001604051908101604052809392919081815260200183838082843782019150505050505091929192908035906020019092919050505061168e565b005b3480156109dc57600080fd5b50610a81600480360381019080803573ffffffffffffffffffffffffffffffffffffffff169060200190929190803573ffffffffffffffffffffffffffffffffffffffff16906020019092919080359060200190929190803590602001908201803590602001908080601f0160208091040260200160405190810160405280939291908181526020018383808284378201915050505050509192919290505050611a1c565b005b348015610a8f57600080fd5b50610ae4600480360381019080803573ffffffffffffffffffffffffffffffffffffffff169060200190929190803573ffffffffffffffffffffffffffffffffffffffff169060200190929190505050611a44565b604051808215151515815260200191505060405180910390f35b6000806000837bffffffffffffffffffffffffffffffffffffffffffffffffffffffff19167bffffffffffffffffffffffffffffffffffffffffffffffffffffffff1916815260200190815260200160002060009054906101000a900460ff169050919050565b600080610b73858585611ad8565b905060056000826000191660001916815260200190815260200160002060009054906101000a900460ff169150509392505050565b600060076000838152602001908152602001600020549050919050565b6000610bd082611c9b565b1515610bdb57600080fd5b6002600083815260200190815260200160002060009054906101000a900473ffffffffffffffffffffffffffffffffffffffff169050919050565b6000610c2182611430565b90508073ffffffffffffffffffffffffffffffffffffffff168373ffffffffffffffffffffffffffffffffffffffff1614151515610c5e57600080fd5b8073ffffffffffffffffffffffffffffffffffffffff163373ffffffffffffffffffffffffffffffffffffffff161480610c9e5750610c9d8133611a44565b5b1515610ca957600080fd5b826002600084815260200190815260200160002060006101000a81548173ffffffffffffffffffffffffffffffffffffffff021916908373ffffffffffffffffffffffffffffffffffffffff160217905550818373ffffffffffffffffffffffffffffffffffffffff168273ffffffffffffffffffffffffffffffffffffffff167f8c5be1e5ebec7d5bd14f71427d1e84f3dd0314c0f7b2291e5b200ac8c7c3b92560405160405180910390a4505050565b6006602052806000526040600020600091509050806000018054600181600116156101000203166002900480601f016020809104026020016040519081016040528092919081815260200182805460018160011615610100020316600290048015610e075780601f10610ddc57610100808354040283529160200191610e07565b820191906000526020600020905b815481529060010190602001808311610dea57829003601f168201915b505050505090806001018054600181600116156101000203166002900480601f016020809104026020016040519081016040528092919081815260200182805460018160011615610100020316600290048015610ea55780601f10610e7a57610100808354040283529160200191610ea5565b820191906000526020600020905b815481529060010190602001808311610e8857829003601f168201915b505050505090806002018054600181600116156101000203166002900480601f016020809104026020016040519081016040528092919081815260200182805460018160011615610100020316600290048015610f435780601f10610f1857610100808354040283529160200191610f43565b820191906000526020600020905b815481529060010190602001808311610f2657829003601f168201915b505050505090806003018054600181600116156101000203166002900480601f016020809104026020016040519081016040528092919081815260200182805460018160011615610100020316600290048015610fe15780601f10610fb657610100808354040283529160200191610fe1565b820191906000526020600020905b815481529060010190602001808311610fc457829003601f168201915b505050505090806004018054600181600116156101000203166002900480601f01602080910402602001604051908101604052809291908181526020018280546001816001161561010002031660029004801561107f5780601f106110545761010080835404028352916020019161107f565b820191906000526020600020905b81548152906001019060200180831161106257829003601f168201915b5050505050905085565b6110933382611d0d565b151561109e57600080fd5b600073ffffffffffffffffffffffffffffffffffffffff168273ffffffffffffffffffffffffffffffffffffffff16141515156110da57600080fd5b6110e48382611da2565b6110ee8382611ea5565b6110f88282611fd4565b808273ffffffffffffffffffffffffffffffffffffffff168473ffffffffffffffffffffffffffffffffffffffff167fddf252ad1be2c89b69c2b068fc378daa952ba7f163c4a11628f55a4df523b3ef60405160405180910390a4505050565b600080600060076000858152602001908152602001600020541115156111e6576040517f08c379a00000000000000000000000000000000000000000000000000000000081526004018080602001828103825260148152602001807f73746172206973206e6f7420666f722073616c6500000000000000000000000081525060200191505060405180910390fd5b6007600084815260200190815260200160002054915061120583611430565b905081341015151561127f576040517f08c379a000000000000000000000000000000000000000000000000000000000815260040180806020018281038252601e8152602001807f6e6f7420656e6f75676820746f2062757920746869732069732073746172000081525060200191505060405180910390fd5b61128a81338561139d565b8073ffffffffffffffffffffffffffffffffffffffff166108fc839081150290604051600060405180830381858888f193505050501580156112d0573d6000803e3d6000fd5b5060076000848152602001908152602001600020600090558134111561133a573373ffffffffffffffffffffffffffffffffffffffff166108fc8334039081150290604051600060405180830381858888f19350505050158015611338573d6000803e3d6000fd5b505b505050565b3373ffffffffffffffffffffffffffffffffffffffff1661135f83611430565b73ffffffffffffffffffffffffffffffffffffffff1614151561138157600080fd5b8060076000848152602001908152602001600020819055505050565b6113a78382611d0d565b15156113b257600080fd5b6113bc8382611da2565b6113c68382611ea5565b6113d08282611fd4565b808273ffffffffffffffffffffffffffffffffffffffff168473ffffffffffffffffffffffffffffffffffffffff167fddf252ad1be2c89b69c2b068fc378daa952ba7f163c4a11628f55a4df523b3ef60405160405180910390a4505050565b6000806001600084815260200190815260200160002060009054906101000a900473ffffffffffffffffffffffffffffffffffffffff169050600073ffffffffffffffffffffffffffffffffffffffff168173ffffffffffffffffffffffffffffffffffffffff16141515156114a557600080fd5b80915050919050565b60008073ffffffffffffffffffffffffffffffffffffffff168273ffffffffffffffffffffffffffffffffffffffff16141515156114eb57600080fd5b600360008373ffffffffffffffffffffffffffffffffffffffff1673ffffffffffffffffffffffffffffffffffffffff168152602001908152602001600020549050919050565b60056020528060005260406000206000915054906101000a900460ff1681565b3373ffffffffffffffffffffffffffffffffffffffff168273ffffffffffffffffffffffffffffffffffffffff161415151561158d57600080fd5b80600460003373ffffffffffffffffffffffffffffffffffffffff1673ffffffffffffffffffffffffffffffffffffffff16815260200190815260200160002060008473ffffffffffffffffffffffffffffffffffffffff1673ffffffffffffffffffffffffffffffffffffffff16815260200190815260200160002060006101000a81548160ff0219169083151502179055508173ffffffffffffffffffffffffffffffffffffffff163373ffffffffffffffffffffffffffffffffffffffff167f17307eab39ab6107e8899845ad3d59bd9653f200f220920489ca2b5937696c3183604051808215151515815260200191505060405180910390a35050565b6000611698612458565b3073ffffffffffffffffffffffffffffffffffffffff16630384153d8787876040518463ffffffff167c010000000000000000000000000000000000000000000000000000000002815260040180806020018060200180602001848103845287818151815260200191508051906020019080838360005b8381101561172a57808201518184015260208101905061170f565b50505050905090810190601f1680156117575780820380516001836020036101000a031916815260200191505b50848103835286818151815260200191508051906020019080838360005b83811015611790578082015181840152602081019050611775565b50505050905090810190601f1680156117bd5780820380516001836020036101000a031916815260200191505b50848103825285818151815260200191508051906020019080838360005b838110156117f65780820151818401526020810190506117db565b50505050905090810190601f1680156118235780820380516001836020036101000a031916815260200191505b509650505050505050602060405180830381600087803b15801561184657600080fd5b505af115801561185a573d6000803e3d6000fd5b505050506040513d602081101561187057600080fd5b81019080805190602001909291905050501515156118f6576040517f08c379a00000000000000000000000000000000000000000000000000000000081526004018080602001828103825260208152602001807f737461722068617320616c7265616479206265656e207265676973746572656481525060200191505060405180910390fd5b611901868686611ad8565b9150600160056000846000191660001916815260200190815260200160002060006101000a81548160ff02191690831515021790555060a06040519081016040528089815260200188815260200187815260200186815260200185815250905080600660008581526020019081526020016000206000820151816000019080519060200190611991929190612488565b5060208201518160010190805190602001906119ae929190612488565b5060408201518160020190805190602001906119cb929190612488565b5060608201518160030190805190602001906119e8929190612488565b506080820151816004019080519060200190611a05929190612488565b50905050611a128361212e565b5050505050505050565b611a27848484611089565b611a338484848461213b565b1515611a3e57600080fd5b50505050565b6000600460008473ffffffffffffffffffffffffffffffffffffffff1673ffffffffffffffffffffffffffffffffffffffff16815260200190815260200160002060008373ffffffffffffffffffffffffffffffffffffffff1673ffffffffffffffffffffffffffffffffffffffff16815260200190815260200160002060009054906101000a900460ff16905092915050565b600060028484846040516020018084805190602001908083835b602083101515611b175780518252602082019150602081019050602083039250611af2565b6001836020036101000a03801982511681845116808217855250505050505090500183805190602001908083835b602083101515611b6a5780518252602082019150602081019050602083039250611b45565b6001836020036101000a03801982511681845116808217855250505050505090500182805190602001908083835b602083101515611bbd5780518252602082019150602081019050602083039250611b98565b6001836020036101000a03801982511681845116808217855250505050505090500193505050506040516020818303038152906040526040518082805190602001908083835b602083101515611c285780518252602082019150602081019050602083039250611c03565b6001836020036101000a0380198251168184511680821785525050505050509050019150506020604051808303816000865af1158015611c6c573d6000803e3d6000fd5b5050506040513d6020811015611c8157600080fd5b810190808051906020019092919050505090509392505050565b6000806001600084815260200190815260200160002060009054906101000a900473ffffffffffffffffffffffffffffffffffffffff169050600073ffffffffffffffffffffffffffffffffffffffff168173ffffffffffffffffffffffffffffffffffffffff161415915050919050565b600080611d1983611430565b90508073ffffffffffffffffffffffffffffffffffffffff168473ffffffffffffffffffffffffffffffffffffffff161480611d8857508373ffffffffffffffffffffffffffffffffffffffff16611d7084610bc5565b73ffffffffffffffffffffffffffffffffffffffff16145b80611d995750611d988185611a44565b5b91505092915050565b8173ffffffffffffffffffffffffffffffffffffffff16611dc282611430565b73ffffffffffffffffffffffffffffffffffffffff16141515611de457600080fd5b600073ffffffffffffffffffffffffffffffffffffffff166002600083815260200190815260200160002060009054906101000a900473ffffffffffffffffffffffffffffffffffffffff1673ffffffffffffffffffffffffffffffffffffffff16141515611ea15760006002600083815260200190815260200160002060006101000a81548173ffffffffffffffffffffffffffffffffffffffff021916908373ffffffffffffffffffffffffffffffffffffffff1602179055505b5050565b8173ffffffffffffffffffffffffffffffffffffffff16611ec582611430565b73ffffffffffffffffffffffffffffffffffffffff16141515611ee757600080fd5b611f3a6001600360008573ffffffffffffffffffffffffffffffffffffffff1673ffffffffffffffffffffffffffffffffffffffff1681526020019081526020016000205461235d90919063ffffffff16565b600360008473ffffffffffffffffffffffffffffffffffffffff1673ffffffffffffffffffffffffffffffffffffffff1681526020019081526020016000208190555060006001600083815260200190815260200160002060006101000a81548173ffffffffffffffffffffffffffffffffffffffff021916908373ffffffffffffffffffffffffffffffffffffffff1602179055505050565b600073ffffffffffffffffffffffffffffffffffffffff166001600083815260200190815260200160002060009054906101000a900473ffffffffffffffffffffffffffffffffffffffff1673ffffffffffffffffffffffffffffffffffffffff1614151561204257600080fd5b816001600083815260200190815260200160002060006101000a81548173ffffffffffffffffffffffffffffffffffffffff021916908373ffffffffffffffffffffffffffffffffffffffff1602179055506120e76001600360008573ffffffffffffffffffffffffffffffffffffffff1673ffffffffffffffffffffffffffffffffffffffff1681526020019081526020016000205461237e90919063ffffffff16565b600360008473ffffffffffffffffffffffffffffffffffffffff1673ffffffffffffffffffffffffffffffffffffffff168152602001908152602001600020819055505050565b612138338261239f565b50565b60008061215d8573ffffffffffffffffffffffffffffffffffffffff16612445565b151561216c5760019150612354565b8473ffffffffffffffffffffffffffffffffffffffff1663150b7a02338887876040518563ffffffff167c0100000000000000000000000000000000000000000000000000000000028152600401808573ffffffffffffffffffffffffffffffffffffffff1673ffffffffffffffffffffffffffffffffffffffff1681526020018473ffffffffffffffffffffffffffffffffffffffff1673ffffffffffffffffffffffffffffffffffffffff16815260200183815260200180602001828103825283818151815260200191508051906020019080838360005b83811015612261578082015181840152602081019050612246565b50505050905090810190601f16801561228e5780820380516001836020036101000a031916815260200191505b5095505050505050602060405180830381600087803b1580156122b057600080fd5b505af11580156122c4573d6000803e3d6000fd5b505050506040513d60208110156122da57600080fd5b8101908080519060200190929190505050905063150b7a027c0100000000000000000000000000000000000000000000000000000000027bffffffffffffffffffffffffffffffffffffffffffffffffffffffff1916817bffffffffffffffffffffffffffffffffffffffffffffffffffffffff19161491505b50949350505050565b60008083831115151561236f57600080fd5b82840390508091505092915050565b600080828401905083811015151561239557600080fd5b8091505092915050565b600073ffffffffffffffffffffffffffffffffffffffff168273ffffffffffffffffffffffffffffffffffffffff16141515156123db57600080fd5b6123e58282611fd4565b808273ffffffffffffffffffffffffffffffffffffffff16600073ffffffffffffffffffffffffffffffffffffffff167fddf252ad1be2c89b69c2b068fc378daa952ba7f163c4a11628f55a4df523b3ef60405160405180910390a45050565b600080823b905060008111915050919050565b60a06040519081016040528060608152602001606081526020016060815260200160608152602001606081525090565b828054600181600116156101000203166002900490600052602060002090601f016020900481019282601f106124c957805160ff19168380011785556124f7565b828001600101855582156124f7579182015b828111156124f65782518255916020019190600101906124db565b5b5090506125049190612508565b5090565b61252a91905b8082111561252657600081600090555060010161250e565b5090565b905600a165627a7a723058206ada7ea866eebfe861b90e661fcac7ea441af21bb0bfd3d1868074db1a92b7d60029",
  "source": "pragma solidity ^0.4.24;\n\nimport 'openzeppelin-solidity/contracts/token/ERC721/ERC721.sol';\n// import \"github.com/Arachnid/solidity-stringutils/strings.sol\";\n\ncontract StarNotary is ERC721 {\n  //using strings for *;\n    struct Star {\n        string name;\n        string story;\n        string Dec;\n        string Mag;\n        string Cent;\n\n    }\n    mapping(bytes32 => bool) public registeredStars;\n    // mapping relates a token id to a specific star.\n    mapping(uint256 => Star) public tokenIdToStarInfo;\n    // this mapping tells you which star is for sale at which price\n    mapping(uint256 => uint256) public starsForSale;\n\n    function createStarHashByCoordinates(string _Dec, string _Mag, string _Cent) internal pure returns (bytes32){\n      return sha256(abi.encodePacked(_Dec, _Mag, _Cent));\n    }\n\n    function createStar(string _name, string _story, string _Dec, string _Mag, string _Cent ,uint256 _tokenId) public {\n        // checks if star is registered or not based on coordinates\n        require(!this.checkIfStarExist(_Dec, _Mag, _Cent), \"star has already been registered\");\n        bytes32 starHash = createStarHashByCoordinates(_Dec, _Mag, _Cent);\n        // registeres the star coordinates before minting\n        registeredStars[starHash] = true;\n        // creates new Star\n        Star memory newStar = Star(_name, _story, _Dec, _Mag, _Cent);\n        // assigns tokenID to star\n        tokenIdToStarInfo[_tokenId] = newStar;\n        // mint token\n        mint(_tokenId);\n    }\n\n    function mint(uint256 _tokenId) internal{\n      // make sure token has not been minted\n      // require(super._tokenOwner[_tokenId] == address(0));\n      super._mint(msg.sender, _tokenId);\n    }\n\n    function checkIfStarExist(string _Dec, string _Mag, string _Cent) public view  returns (bool){\n      bytes32 starHash = createStarHashByCoordinates(_Dec, _Mag, _Cent);\n      return registeredStars[starHash];\n    }\n\n\n    function putStarUpForSale(uint256 _tokenId, uint256 _price) public {\n      // makes sure that sender own the start to be put on sale\n      require(super.ownerOf(_tokenId) == msg.sender);\n      // puts star for sale\n      starsForSale[_tokenId] = _price;\n    }\n\n    function starsForSale(uint256 _tokenId) public view returns (uint256){\n      return starsForSale[_tokenId];\n    }\n\n    function buyStar(uint256 _tokenId) public payable {\n      // makes sure the intended star to buy is actually for sale\n        require(starsForSale[_tokenId] > 0, \"star is not for sale\");\n        // gets star price\n        uint256 starCost = starsForSale[_tokenId];\n        // gets star owner\n        address starOwner = super.ownerOf(_tokenId);\n        // makes sure that the money being paid is greater than the price\n        require(msg.value >= starCost, \"not enough to buy this is star\");\n        // transfers star from owner to buyer\n        safeTransferFrom(starOwner, msg.sender, _tokenId);\n\n        starOwner.transfer(starCost);\n        delete starsForSale[_tokenId];\n        // in case the buyer over paid, it gets the extra money back\n        if(msg.value > starCost) {\n            msg.sender.transfer(msg.value - starCost);\n        }\n    }\n\n    function safeTransferFrom(address _from, address _to, uint256 _tokenId) public{\n      require(_isApprovedOrOwner(_from, _tokenId));\n      _clearApproval(_from, _tokenId);\n      _removeTokenFrom(_from, _tokenId);\n      _addTokenTo(_to, _tokenId);\n      emit Transfer(_from, _to, _tokenId);\n    }\n}\n",
  "sourcePath": "/Users/avargaslugo/udacity_blockchain/decentralized_star_notary/zeppelin_boilerplate/smart_contracts/contracts/StarNotary.sol",
  "compiler": {
    "name": "solc",
    "version": "0.4.24+commit.e67f0147.Emscripten.clang"
  },
  "schemaVersion": "2.0.1",
  "updatedAt": "2018-12-10T19:32:22.763Z"
}